:100000000C94DB000C9403010C9403010C94030189
:100010000C9403010C9403010C9403010C94030150
:100020000C9403010C9403010C9403010C94030140
:100030000C9403010C9403010C9403010C94030130
:100040000C942A0E0C9403010C94F80D0C94D20D10
:100050000C9403010C9403010C9403010C94030110
:100060000C94740E0C94030100407A10F35A00A013
:10007000724E18090010A5D4E80000E87648170071
:1000800000E40B54020000CA9A3B000000E1F505B1
:10009000000080969800000040420F000000A086FB
:1000A00001000000102700000000E803000000002D
:1000B0006400000000000A000000000001000000D1
:1000C00000002C76D888DC674F0823DFC1DFAE59EB
:1000D000E1B1B796E5E3E453C63AE651997696E87E
:1000E000E6C28426EB898C9B62ED407C6FFCEFBC02
:1000F0009C9F40F2BAA56FA5F490055A2AF75C932D
:100100006B6CF9676DC11BFCE0E40D47FEF520E662
:10011000B500D0ED902E0300943577050080841E45
:10012000080000204E0A000000C80C333333330FA0
:10013000986E12831141EF8D2114893BE65516CF3D
:10014000FEE6DB18D1844B381BF77C1D901DA4BB49
:10015000E424203284725E228100C9F124ECA1E5FE
:100160003D2700000000240027002A0000000000B6
:10017000250028002B0004040404040404040202E3
:100180000202020203030303030301020408102016
:100190004080010204081020010204081020000021
:1001A0000008000201000003040700000000000036
:1001B0000000D20F261311241FBECFEFD8E0DEBF00
:1001C000CDBF14E0A0E0B1E0EEECF5E302C0059095
:1001D0000D92A836B107D9F726E0A8E6B4E001C031
:1001E0001D92A137B207E1F710E0CAEDD0E004C0DC
:1001F0002197FE010E94E218C93DD107C9F70E946C
:1002000022100C94DA1A0C940000FC012481358130
:10021000232B21F080819181009721F410920D050C
:100220008DE095E00895089508950895AF92BF92E6
:10023000CF92DF92EF92FF920F931F93CF93DF93B2
:100240006C017B018B01040F151FEB015E01AE18E1
:10025000BF08C017D10759F06991D601ED91FC9103
:100260000190F081E02DC6010995892B79F7C50130
:10027000DF91CF911F910F91FF90EF90DF90CF9082
:10028000BF90AF900895FC014481558160817181D8
:100290008EE095E00C941601FC01538D448D252FC2
:1002A00030E0842F90E0821B930B541710F0CF9610
:1002B000089501970895FC01918D828D981761F042
:1002C000A28DAE0FBF2FB11D5D968C91928D9F5F59
:1002D0009F73928F90E008958FEF9FEF0895FC0138
:1002E000918D828D981731F0828DE80FF11D858DEB
:1002F00090E008958FEF9FEF0895FC01918D228D7E
:10030000892F90E0805C9F4F821B91098F73992702
:1003100008958EE095E00E947D0121E0892B09F48B
:1003200020E0822F089580E090E0892B29F00E9440
:10033000890181110C9400000895FC01A48DA80F7F
:10034000B92FB11DA35ABF4F2C91848D90E0019617
:100350008F739927848FA689B7892C93A089B18937
:100360008C91837080648C93938D848D981306C0D8
:100370000288F389E02D80818F7D80830895EF923C
:10038000FF920F931F93CF93DF93EC0181E0888F4F
:100390009B8D8C8D98131AC0E889F989808185FF1F
:1003A00015C09FB7F894EE89FF896083E889F989C1
:1003B00080818370806480839FBF81E090E0DF91C3
:1003C000CF911F910F91FF90EF900895F62E0B8D16
:1003D00010E00F5F1F4F0F731127E02E8C8D8E11D1
:1003E0000CC00FB607FCFACFE889F989808185FF38
:1003F000F5CFCE010E949D01F1CFEB8DEC0FFD2FCB
:10040000F11DE35AFF4FF0829FB7F8940B8FEA89F2
:10041000FB8980818062CFCFCF93DF93EC01888D01
:100420008823B9F0AA89BB89E889F9898C9185FD6F
:1004300003C0808186FD0DC00FB607FCF7CF8C91FD
:1004400085FFF2CF808185FFEDCFCE010E949D0117
:10045000E9CFDF91CF91089590E0FC01E256FE4F85
:100460002491FC01E657FE4F3491FC01EA58FE4FFF
:10047000E491EE23C9F0222339F0233001F1A8F4EE
:10048000213019F1223029F1F0E0EE0FFF1FE4597D
:10049000FE4FA591B4918FB7F894EC91611126C0ED
:1004A00030953E233C938FBF08952730A9F0283024
:1004B000C9F0243049F7809180008F7D03C080917E
:1004C00080008F7780938000DFCF84B58F7784BDE5
:1004D000DBCF84B58F7DFBCF8091B0008F77809389
:1004E000B000D2CF8091B0008F7DF9CF3E2BDACF14
:1004F0003FB7F8948091FD049091FE04A091FF0411
:10050000B091000526B5A89B05C02F3F19F00196B4
:10051000A11DB11D3FBFBA2FA92F982F8827BC015D
:10052000CD01620F711D811D911D42E0660F771F85
:10053000881F991F4A95D1F708958F929F92AF9285
:10054000BF92CF92DF92EF92FF924B015C010E942B
:1005500078026B017C010E9478026C197D098E097A
:100560009F09683E734081059105A8F321E0821A36
:100570009108A108B10888EEC80E83E0D81EE11CDE
:10058000F11C81149104A104B10429F7FF90EF90AC
:10059000DF90CF90BF90AF909F908F900895209163
:1005A000AE04260F3327331F21323105ECF420919E
:1005B000D204FC0190E080E0243069F082E00895EC
:1005C000A091AE042191AC0142575B4FA40FB52F0F
:1005D000B11D2C930196861798F38091AE04680F95
:1005E0006093AE0480E0089581E008951092D204F3
:1005F00081E08093D4041092D30461E082E10E94F0
:100600002C0261E083E10E942C02E9EBF0E08081A2
:100610008E7F808380818D7F808388E48093B80083
:1006200085E48093BC000895CF93DF9391E090938D
:100630008D048823B9F0C091B800D091BA008091A0
:10064000BC008A7B8093BC0060E082E10E942C02A7
:1006500060E083E10E942C020E94F602D093BA006F
:10066000C093B800DF91CF9108950895E0910805F7
:1006700080910705E81730F4F0E0E859FB4F8081DE
:1006800090E008958FEF9FEF089590910805809175
:1006900007052FEF3FEF981748F4E92FF0E0E859EE
:1006A000FB4F208130E09F5F90930805C9010895BA
:1006B0008091070590910805891B990B0895CF93A8
:1006C000DF93CB01EA01642F0E94CF02CE01DF91BC
:1006D000CF910895CF93DF931F92CDB7DEB7698393
:1006E00061E0CE0101960E94CF0281E090E00F9080
:1006F000DF91CF91089590E080E00895CF93DF934C
:10070000EC010E9478026CA77DA78EA79FA76BA320
:100710007CA38DA39EA36F8F78A389A39AA3DF9157
:10072000CF910895CF93DF93EC0181E08CAFFE0170
:10073000FE961082118212821382CE010E947E03E5
:100740006E818D81DF91CF910C942C02FC0114AE4F
:10075000DC01DE961D921D921D921C92139710AA29
:1007600011AA12AA13AA85AD882331F0668181E00F
:10077000682785810C942C0208958F929F92AF92E6
:10078000BF92CF92DF92EF92FF920F931F93CF937E
:10079000DF93EC016A017B018C010A5B1F4FF801BA
:1007A000C082D182E282F382BB24B39420E030E0A5
:1007B000A901CB01B6010E9487158111B12CBFA2FE
:1007C00020E030E0A901C701B6010E948715811120
:1007D0000CC020E030E0A90168A979A98AA99BA9E9
:1007E0000E948715882309F4F0C020E030E0A901B9
:1007F000C701B6010E945A18BB24BA94181614F403
:10080000BB24B394BC8220E030E0A901C701B6014B
:100810000E945A181816ECF424EB32EA41E959E325
:10082000C701B6010E94871587FF1DC06B2DBB0C49
:10083000770B880B990B0E948E1524EB32EA41E965
:1008400059E30E94ED15F8016083718382839383DD
:100850000AC024EB32EA41E959EBC701B6010E9414
:100860005A1818161CF3FE01E65BFF4F8081918138
:10087000892B09F484C0C8A8D9A8EAA8FBA8F80164
:1008800080809180A280B380A5019401C701B60148
:100890000E948715882309F45BC020E030E0A9019D
:1008A000C501B4010E945A1818160CF060C0C501A9
:1008B000B4010E9424188B0120E030E0A901C70197
:1008C000B6010E945A1818160CF055C0C701B6019F
:1008D0000E9424189801061717070CF49B01032E99
:1008E000000C440B550B285E334041095109A8E325
:1008F000BDEC0E94D81628E33AE440E050E00E94A4
:10090000AB162856354C4F4F5F4F80ED97E0283996
:100910003A4310F488E99AE39E8F8D8FA7019601E0
:1009200060E074E284E799E40E94B2176B017C01F5
:1009300020E030E0A9010E945A1818160CF041C0BE
:10094000C701B6010E942B186B8B7C8B8D8B9E8B05
:10095000CE01DF91CF911F910F91FF90EF90DF902B
:10096000CF90BF90AF909F908F900C949203C50151
:10097000B40190589ECFC701B6019058A9CF20E08E
:1009800030E0A901C701B6010E94871581110FC08F
:10099000CE01DF91CF911F910F91FF90EF90DF90EB
:1009A000CF90BF90AF909F908F900C94A603F801CA
:1009B000208131814281538128AB39AB4AAB5BAB9B
:1009C000AFCFC701B6019058BDCFDF91CF911F9136
:1009D0000F91FF90EF90DF90CF90BF90AF909F90DE
:1009E0008F9008954F925F926F927F928F929F9215
:1009F000AF92BF92CF92DF92EF92FF920F931F932D
:100A0000CF93DF93CDB7DEB72A970FB6F894DEBF4A
:100A10000FBECDBF9A878987DC01DC968C91882335
:100A200009F416C20E947802E985FA8560AF71AFB9
:100A300082AF93AF8F01005B1F4FD8018D919C91C6
:100A4000E65BFF4F892B09F00FC280819181892BD2
:100A500009F45DC1E985FA85EE5BFF4F80819181E4
:100A6000A281B38189839A83AB83BC8320E030E089
:100A700040EA50E4BC01CD010E945A1887FD47C1ED
:100A8000A985BA85D8968D909D90AD90BC90DB9746
:100A90009396CD90DD90ED90FC90969757966D9142
:100AA0007C91589790E080E08C189D08AE08BF08B4
:100AB00086169706A806B90608F429C1C60ED71EE1
:100AC000E81EF91EFD01C3A2D4A2E5A2F6A284A8E5
:100AD00095A8A6A8B7A8C080D180E280F3808C1822
:100AE0009D08AE08BF08C0A8D1A8E2A8F3A80E943C
:100AF0008C15A985BA8559962D913D914D915C91A2
:100B00005C970E94ED156D837E838F839887A70184
:100B10009601C701B6010E94ED15E985FA85E45BEF
:100B2000FF4F20813181428153810E94ED152B01BD
:100B30003C01C501B401B7FE07C066277727CB018A
:100B4000681979098A099B090E948E159B01AC01DD
:100B5000C301B2010E945A1887FD0EC020E030E0A8
:100B6000A901C701B6010E945A1887FD07C020E0FD
:100B700030E040E85FEB06C0B7FCF9CF20E030E0A2
:100B800040E85FE36D817E818F8198850E94ED153D
:100B9000A70196010E9446174B015C01CB01D501CC
:100BA000E985FA8580AB91ABA2ABB3ABFE964080F2
:100BB00051806280738020E030E0A901C301B2015E
:100BC0000E94871581114EC0C980DA80EB80FC80BD
:100BD000F7FAF094F7F8F094A7019601B401C50173
:100BE0000E94871587FD10C09401A50169817A8153
:100BF0008B819C810E9487156401750187FF04C069
:100C0000C980DA80EB80FC80A985BA85D096CD9228
:100C1000DD92ED92FC92D397A985BA85D096CD90BE
:100C2000DD90ED90FC90D39720E030E0A901C70162
:100C3000B6010E945A181816B4F520E030E040EAD8
:100C400050E4C701B6010E945A181816B4F180E4A6
:100C50009DE0A3E0B0E0E985FA85838B948BA58BBA
:100C6000B68B47C073016201F7FAF094F7F8F0947D
:100C7000A7019601B401C5010E94871587FD0CC02C
:100C8000A3019201B401C5010E945A1873016201C7
:100C9000181614F064017501E985FA85C0AAD1AA75
:100CA000E2AAF3AAB9CF20E030E040EA50ECC70155
:100CB000B6010E94871587FFCACFA701960160E0A1
:100CC00074E284E799E40E94B2174B015C0120E0D2
:100CD00030E0A9010E945A1818160CF065C0C50131
:100CE000B4010E942B18E985FA85638B748B858B80
:100CF000968B20E030E0A901C701B6010E945A1886
:100D000087FD56C081E0A985BA8514968C93E98544
:100D1000FA8580AD91ADA2ADB3AD44A555A566A54C
:100D200077A5841B950BA60BB70B4389548965895E
:100D3000768984179507A607B70708F489C080ADA0
:100D400091ADA2ADB3AD84A795A7A6A7B7A74081E3
:100D5000518162817381D8018D919C91892BD9F544
:100D600084A995A9A6A9B7A984179507A607B707C7
:100D700091F5CF010E94A60380E02A960FB6F89461
:100D8000DEBF0FBECDBFDF91CF911F910F91FF90BE
:100D9000EF90DF90CF90BF90AF909F908F907F901B
:100DA0006F905F904F900895C501B401905899CF0E
:100DB0008FEFA9CF8FEFC2C0C501B4019058D5C045
:100DC00024EB32EA41E959EBC701B6010E945A18F7
:100DD00087FD9DCFEEC0E985FA852481822F022E02
:100DE000000C990BAA0BBB0B840F951FA61FB71FF6
:100DF00080839183A283B3830784F089E02D81E00F
:100E000012160CF080E0A985BA8517969C91179769
:100E1000891711F152968C919081892B8083E985F5
:100E2000FA8581890584F685E02D9081892B808360
:100E30008BE090E00197F1F7A985BA8551968C91E6
:100E400051971D96ED91FC91908180958923808327
:100E5000E985FA8584AD91CFA985BA8552968C91A2
:100E6000908180958923DACF80819181892B09F443
:100E70004ECFE985FA85C0ACD1ACE2ACF3AC658D60
:100E8000768D878D90A1A1A1B2A1C81AD90AEA0ACC
:100E9000FB0A90E080E0C616D706E806F90608F4DB
:100EA00036CFC0ACD1ACE2ACF3ACC78ED0A2E1A2DD
:100EB000F2A2C0A8D1A8E2A8F3A80E948C15E985E7
:100EC000FA85218D328D438D548D0E94ED154B0195
:100ED0005C01A7019601E985FA85EA5BFF4F608115
:100EE0007181828193810E94451720E030E0A90141
:100EF0000E945A1820E030E040E85FE387FF04C01A
:100F000020E030E040E85FEBC501B4010E94ED1540
:100F1000A70196010E9446176B017C01A985BA853D
:100F2000D096CD92DD92ED92FC92D39720E030E006
:100F3000A9010E945A1887FD3DCF81E0E985FA8515
:100F40008483A701960160E074E284E799E40E943B
:100F5000B2174B015C0120E030E0A9010E945A1851
:100F600018160CF029CFC501B4010E942B18A985D1
:100F7000BA8553966D937D938D939C9356979796D0
:100F80008C91882309F4C3CE20E030E0A901C70189
:100F9000B6010E945A1818160CF012CF24EB32EA50
:100FA00041E959E3C701B6010E94871518160CF4F0
:100FB000AECE89859A850E94A603A9CECF93DF93F2
:100FC000EC010E94A603188219821A821B8218AAB9
:100FD00019AA1AAA1BAADF91CF910895E9E0F5E0BA
:100FE00080911B0690911C06918380838091C90596
:100FF0009091CA059383828308954F925F926F9276
:101000007F928F929F92AF92BF92CF92DF92EF9298
:10101000FF926C0140E050E068EC73E489EC95E0ED
:101020000E94BD0310921A061092190689EC95E0F1
:101030000E947E030D2C000CEE08FF08C092FD05F7
:10104000D092FE05E092FF05F09200068090C9055F
:101050009090CA05A090CB05B090CC05C814D904D7
:10106000EA04FB04B9F140900B0650900C06609026
:101070000D0670900E068091130690911406892B30
:1010800051F020E030E040EA50E4C301B2010E9498
:10109000871587FF1BC0A301920160E074E284E71B
:1010A00099E40E94B2170E942B186093DC0570939C
:1010B000DD058093DE059093DF0581E08C149D04AF
:1010C000AE04BF040CF08FEF8093CD0589EC95E062
:1010D0000E94920389EC95E00E94F204882319F0A3
:1010E0000E94EE07F7CFFF90EF90DF90CF90BF9078
:1010F000AF909F908F907F906F905F904F900895EA
:101100004F925F926F927F928F929F92AF92BF9217
:10111000CF92DF92EF92FF926C0140E050E068ECDA
:1011200073E48BE196E00E94BD0310926C0610926E
:101130006B068BE196E00E947E030D2C000CEE08FE
:10114000FF08C0924F06D0925006E0925106F092EE
:10115000520680901B0690901C06A0901D06B09031
:101160001E06C814D904EA04FB04B9F140905D06D8
:1011700050905E0660905F067090600680916506F4
:1011800090916606892B51F020E030E040EA50E46F
:10119000C301B2010E94871587FF1BC0A301920102
:1011A00060E074E284E799E40E94B2170E942B1871
:1011B00060932E0670932F0680933006909331062D
:1011C00081E08C149D04AE04BF040CF08FEF80937B
:1011D0001F068BE196E00E9492038BE196E00E944D
:1011E000F204882319F00E94EE07F7CFFF90EF90EA
:1011F000DF90CF90BF90AF909F908F907F906F9037
:101200005F904F9008951F93CF93DF93EC01142FBD
:10121000188219821A821B8281E08C838FEF8D8362
:101220001E821F8218861A8619861C861B86462FE8
:1012300070E060E0CE010E94930F412F61E070E00A
:10124000CE010E94930F88E99AE39E8F8D8F1F8EA7
:1012500018A219A21AA21BA21CA21DA21EA21FA2A2
:101260001CA61DA61EA61FA618AA19AA1AAA1BAA62
:101270001CAA1DAA1EAA1FAA18AE19AE1AAE1BAE32
:101280001CAE1DAEFE01FE961082118212821382E8
:10129000349680E090E0A6E9B3E480839183A28352
:1012A000B383349610821182128213823A9611828D
:1012B000108285E09DE0A0E0B0E08B8B9C8BAD8B35
:1012C000BE8B88EE93E0988F8F8B36978CE291E0FF
:1012D0009183808332968EE094E7AAEDBAE380830F
:1012E0009183A283B38382E599E4ADE9B9E3898F61
:1012F0009A8FAB8FBC8F84EE98E3AEE8BFE388A7EC
:1013000099A7AAA7BBA7DF91CF911F910895FC01D0
:1013100001900020E9F73197AF01481B590BBC0140
:101320008EE095E00C9416018F929F92AF92BF923F
:10133000CF92DF92EF92FF920F931F93CF93DF93A1
:10134000CDB7DEB7A1970FB6F894DEBF0FBECDBF05
:101350006B017C01F7FE41C06DE28EE095E00E94DA
:10136000BF018C0122273327A9012C193D094E0901
:101370005F0919A2CE0181967C019AE0892E912CF9
:10138000A12CB12CCA01B901A50194010E94141726
:10139000605DF70162937F0121153105410551051B
:1013A00089F790E080E0309719F0CF010E9487091B
:1013B000800F911FA1960FB6F894DEBF0FBECDBF70
:1013C000DF91CF911F910F91FF90EF90DF90CF9021
:1013D000BF90AF909F908F900895AC019B0119A290
:1013E0008E010F5D1F4F8AE0C82ED12CE12CF12C0D
:1013F000CA01B901A70196010E941417605DF801A6
:1014000062938F01211531054105510589F790E05F
:1014100080E0309779F2CF010E948709CBCFCF933C
:10142000DF930E948709EC018AE291E00E9487091C
:101430008C0F9D1FDF91CF9108958DE291E00E9466
:10144000870960911B0670911C0680911D06909182
:101450001E060E9494098AE291E00E94870982E4B4
:1014600091E00E9487096091C9057091CA05809139
:10147000CB059091CC050E9494098AE291E00E94EC
:10148000870987E591E00C940F0A60E070E0CB01DA
:101490000E94940981E891E00E94870980911B06CF
:1014A00090911C06A0911D06B0911E069C01AD01F5
:1014B00066277727CB01621B730B840B950B0E9469
:1014C000940981E891E00E9487096091C9057091B3
:1014D000CA058091CB059091CC050E94940981E8C2
:1014E00091E00E94870983EC95E00E94430181E826
:1014F00091E00E9487098DEB95E00E94430181E80D
:1015000091E00E94870987EB95E00E9443018BE2FE
:1015100091E00C9487090F931F93CF93DF938C0175
:10152000EB01FC01808191810097E1F06881798174
:1015300061157105A9F0428153812C813D814217CB
:10154000530770F00E94D31A8C819D81F801958316
:1015500084831D821C82DF91CF911F910F9108958A
:101560000E94841988819981F801918380838A81FE
:101570009B81938382838C819D819583848319824F
:1015800018821B821A82E5CFCF93DF93EC0188810A
:101590009981009711F00E948419198218821D8286
:1015A0001C821B821A82DF91CF910895FC018081F9
:1015B0009181009711F00C94841908950F931F9353
:1015C000CF93DF93EC0188819981009759F02A81AC
:1015D0003B812617370730F081E0DF91CF911F91D3
:1015E0000F9108958B016F5F7F4F0E940D1A009736
:1015F00059F0998388831B830A832C813D81232B97
:1016000059F7FC011082E8CF80E0E7CFCF93DF935A
:10161000EC01198218821B821A821D821C8270E0E2
:1016200060E00E94DE0A811105C0CE01DF91CF91FA
:101630000C94C40A1D821C8263E871E08881998140
:10164000DF91CF910C94D31AEF92FF920F931F93D7
:10165000CF93DF938C017B01EB0109900020E9F728
:101660002197C61BD70BBE010E94DE0A811109C05B
:10167000C801DF91CF911F910F91FF90EF900C94D3
:10168000C40AF801D583C483B70180819181DF91B9
:10169000CF911F910F91FF90EF900C94D31AEF927E
:1016A000FF920F931F93CF93DF93CDB7DEB7A19730
:1016B0000FB6F894DEBF0FBECDBF7C01CB01BA01DF
:1016C000F7011182108213821282158214828E0118
:1016D0000F5F1F4F22E044E00E943213009789F011
:1016E000BC01C7010E94240BA1960FB6F894DEBF7F
:1016F0000FBECDBFDF91CF911F910F91FF90EF9063
:101700000895C7010E94C40AEFCF2F923F924F92D3
:101710005F926F927F928F929F92AF92BF92CF9281
:10172000DF92EF92FF920F931F93CF93DF93CDB78A
:10173000DEB764970FB6F894DEBF0FBECDBF66E983
:1017400070E080E090E00E949D022AE029871A86DE
:101750001D868CE38E879CE19F87E6E4E88B1B86E1
:10176000212C312C1C86812C912C54012401350113
:10177000CE01059698878F8319821A821B821C825C
:101780000E9478026B017C018091D204811165C0B6
:1017900091E09093D2049093D404EFEFE093D104BE
:1017A0001092F604F3E0F093F5049093F70480911F
:1017B000F70480658093F7048091D304813009F0A9
:1017C00091C11092D3040E9478026B017C01809138
:1017D000F7048093BB008091890490918A04A091C2
:1017E0008B04B0918C04892B8A2B8B2BA1F00E9447
:1017F00078020091890410918A0420918B04309121
:101800008C046C197D098E099F0906171707280794
:10181000390708F443C08091BC0083FDD8CF25EC84
:101820002093BC000E9478026B017C018091D2045D
:10183000813009F45BC18091F604843008F078C1EE
:101840008091F604A5EDB4E0E8E6F4E090E09817A6
:1018500051F12D9121939F5FFACF8091890490914E
:101860008A04A0918B04B0918C04892B8A2B8B2B3A
:1018700009F48ACF0E9478020091890410918A04A9
:1018800020918B0430918C046C197D098E099F097D
:10189000061717072807390708F076CF80918804C4
:1018A0000E94140380E010920805809307058E01C2
:1018B0000F5F1F4F64E070E080E090E00E949D02A7
:1018C0008BEA95E00E944503F80181938F018F8197
:1018D0009885E817F90771F7698170E0762F662718
:1018E000CB0188279F736A81680F792F711DCB8088
:1018F000DC806656764090E080E00E948C1520E007
:1019000030E048E455E40E94ED1520E03CEC4CE466
:1019100056E40E94B21720E030E048EC54E40E9404
:1019200045177B018C0120E030E04AEF54E40E942F
:10193000871587FF5BC08C2D90E0982F88276D2D31
:10194000607E680F792F711D35E0759567953A9522
:10195000E1F790E080E00E948C1520EF36E148EC42
:101960005DE30E94ED1520E030E048E452E40E947F
:101970004517698B7A8B8B8B9C8B20E030E44CE98C
:1019800055E40E94871587FF31C09701A8016B8538
:10199000722D832D9C850E94871587FF04C0EB86DE
:1019A0002F2C302E1C879701A8016D857E858F8591
:1019B00098890E945A18181624F4ED86FE860F871F
:1019C000188B9701A801C301B2010E9446172B0191
:1019D0003C0129893A894B895C89C501B4010E947F
:1019E00046174B015C019A859F5F9A87E985E15014
:1019F000E987E111C1CEFA856F2F70E090E080E0B9
:101A00000E948C156B017C01AC019B01C301B201EA
:101A10000E94B21720E030E040E252E40E944517F5
:101A20002B013C01BC01A201CE0101960E944F0B8B
:101A3000BE016F5F7F4F83EC95E00E948B0ACE0161
:101A400001960E94D60AA7019601C501B4010E9421
:101A5000B217AB01BC01CE0101960E944F0BBE0133
:101A60006F5F7F4F87EB95E00E948B0ACE01019656
:101A70000E94D60A2D853E854F8558896B85722D2B
:101A8000832D9C850E944517A30192010E94B217E5
:101A9000AB01BC01CE0101960E944F0BBE016F5FEE
:101AA0007F4F8DEB95E00E948B0ACE0101960E943C
:101AB000D60A64960FB6F894DEBF0FBECDBFDF9195
:101AC000CF911F910F91FF90EF90DF90CF90BF903B
:101AD000AF909F908F907F906F905F904F903F90CE
:101AE0002F90089585EE8093BC009CCE8091890450
:101AF00090918A04A0918B04B0918C04892B8A2B3D
:101B00008B2B09F493CE0E947802009189041091E6
:101B10008A0420918B0430918C046C197D098E0904
:101B20009F09061717072807390708F07FCEB6CE9A
:101B300084E088CE85ED8093BC00809189049091EB
:101B40008A04A0918B04B0918C040796A11DB11D4D
:101B500023E0B695A795979587952A95D1F720917B
:101B6000BC0024FD03C01092D20408954091890462
:101B700050918A0460918B0470918C04452B462B04
:101B8000472B69F30097A105B10541F02AE22A9598
:101B9000F1F700C00197A109B109E1CF8091880454
:101BA0000C9414031F920F920FB60F9211242F93CF
:101BB0003F934F935F936F937F938F939F93AF93D5
:101BC000BF93EF93FF938EE095E00E949D01FF91FC
:101BD000EF91BF91AF919F918F917F916F915F91A5
:101BE0004F913F912F910F900FBE0F901F9018951E
:101BF0001F920F920FB60F9211242F938F939F93E2
:101C0000EF93FF93E0911E05F0911F058081E09115
:101C10002405F091250582FD1BC090818091270548
:101C20008F5F8F7320912805821741F0E09127057F
:101C3000F0E0E25FFA4F958F80932705FF91EF91D7
:101C40009F918F912F910F900FBE0F901F9018951D
:101C50008081F4CF1F920F920FB60F9211242F9311
:101C60003F938F939F93AF93BF938091F90490918B
:101C7000FA04A091FB04B091FC043091F80423E035
:101C8000230F2D3758F50196A11DB11D2093F8049F
:101C90008093F9049093FA04A093FB04B093FC049E
:101CA0008091FD049091FE04A091FF04B091000585
:101CB0000196A11DB11D8093FD049093FE04A09395
:101CC000FF04B0930005BF91AF919F918F913F9119
:101CD0002F910F900FBE0F901F90189526E8230F9D
:101CE0000296A11DB11DD2CF1F920F920FB60F9277
:101CF00011242F933F934F935F936F937F938F9311
:101D00009F93AF93BF93EF93FF938091B900887F28
:101D1000803609F44AC0F0F5883209F4A7C018F5F6
:101D2000803109F49BC0B8F4882309F4F9C08830E5
:101D300009F494C0FF91EF91BF91AF919F918F9162
:101D40007F916F915F914F913F912F910F900FBEB7
:101D50000F901F901895883109F488C0803251F790
:101D60008093D10414C0803409F49DC040F48033C2
:101D7000B9F38833F9F68093D10485ECB0C080358F
:101D800009F485C0883509F496C0883499F60E9414
:101D90009A0DD0CF883909F48CC038F5883729F0EE
:101DA00050F4883611F0803729F683E08093D2040E
:101DB0001092D00457C0883809F47BC0803919F0DC
:101DC000803809F0B7CF8091D004803208F071C01C
:101DD000E091D00481E08E0F8093D0048091BB000D
:101DE000F0E0E055FB4F80833DC0803B39F0E0F4EC
:101DF000803A09F479C0883A09F09CCF84E0809356
:101E0000D2041092AF041092AE04E0910305F09159
:101E1000040509958091AE0481110FC081E0809383
:101E2000AE0410928E0409C0803C09F4A6CF883C11
:101E300009F4A3CF883B09F07DCFE091AF0481E0A6
:101E40008E0F8093AF04F0E0E257FB4F80818093C8
:101E5000BB009091AF048091AE0429C08091F7043B
:101E60008093BB0085EC8093BC0064CF9091F60416
:101E70008091F504981758F5E091F60481E08E0FF3
:101E80008093F604F0E0EB52FB4F8081E9CFE091C4
:101E9000F60481E08E0F8093F6048091BB00F0E0A1
:101EA000EB52FB4F80839091F6048091F5049817D4
:101EB000C8F285E8D8CFE091F60481E08E0F8093D8
:101EC000F6048091BB00F0E0EB52FB4F80838091E1
:101ED000D40481115CCF81E08093D30484EA8093A1
:101EE000BC001092D20426CF85EC8093BC001092E7
:101EF000D2048091D004803230F4E091D004F0E03C
:101F0000E055FB4F10826091D00470E0E091010534
:101F1000F091020580EB94E009951092D0040ACF6D
:101F20001092D10434CF0F931F93CF9350E09A01B6
:101F300026573E4FF901C4914A585E4FFA01A491C9
:101F4000AA23A1F0B0E0AA0FBB1FFD01EE59FE4F7E
:101F500005911491FD01E459FE4FA591B491EFB79D
:101F6000F894D801FC91CF2BCC93EFBFFA014491A8
:101F7000E42FF0E0EE0FFF1FE459FE4F459154911E
:101F8000FB01EE0FFF1FE80FF91F56874587F90188
:101F90002491860F971FDC0151962C93CF911F91AE
:101FA0000F910895EEE0F5E01382128288EE93E03F
:101FB000A0E0B0E084839583A683B7832AE031E074
:101FC0003183208325EC30E03587248724EC30E012
:101FD0003787268720EC30E0318B208B21EC30E0F6
:101FE000338B228B22EC30E0358B248B26EC30E0D7
:101FF000378B268B118E128E138E148EEBEAF5E042
:102000001382128284839583A683B7838CE191E047
:10201000918380834DE06CE08BE196E00E940309A0
:1020200047E068E089EC95E00E94030983EC95E0C5
:102030000E94060B8DEB95E00E94060B87EB95E066
:102040000C94060BCF93DF93CDB7DEB728970FB66E
:10205000F894DEBF0FBECDBF789484B5826084BD96
:1020600084B5816084BD85B5826085BD85B581609C
:1020700085BD80916E00816080936E00109281001A
:1020800080918100826080938100809181008160D5
:102090008093810080918000816080938000809196
:1020A000B10084608093B1008091B0008160809322
:1020B000B00080917A00846080937A0080917A00E9
:1020C000826080937A0080917A00816080937A00A8
:1020D00080917A00806880937A001092C100E0912C
:1020E0001E05F0911F0582E08083E0911A05F091B2
:1020F0001B051082E0911C05F0911D058FEC80837B
:1021000010922605E0912205F091230586E0808358
:10211000E0912005F0912105808180618083E0912C
:102120002005F0912105808188608083E091200561
:10213000F0912105808180688083E0912005F091F5
:10214000210580818F7D80831092080510920705FC
:1021500010920605109205050E94F60283E191E0B7
:10216000909304058093030584E191E09093020528
:102170008093010584E891E00E940F0A10920A05FD
:102180001092090510920C0510920B05109266062C
:102190001092650620E030E0A90160E070E080E088
:1021A0009FE30E94B2176B017C01C0926706D09238
:1021B0006806E0926906F0926A0610923406109260
:1021C0003506109236061092370640E050E068EC73
:1021D00073E48BE196E00E94BD038BE196E00E94E0
:1021E000DE071092140610921306C0921506D092C4
:1021F0001606E0921706F09218061092E205109269
:10220000E3051092E4051092E50540E050E068EC2B
:1022100073E489EC95E00E94BD0389EC95E00E948F
:10222000DE0768EC70E080E090E00E949D0240E4F0
:10223000842E42E4942E4FE0A42EB12C01E010E055
:10224000CE0101960E94060B83E991E00E940F0ADD
:102250008EE095E00E947D01181619062CF564E1C8
:1022600070E080E090E00E949D028EE095E00E9488
:102270005B018F831886ED80FE802FEFE21AF20A51
:10228000B701CE0101960E94DE0A882369F02981F8
:102290003A818D819E81BE01695F7F4F820F931FBE
:1022A0000E94D31AFE82ED82CE0101960E940501A2
:1022B000FC018081873769F58BE196E00E94A603D7
:1022C00010931A060093190689EC95E00E947E038C
:1022D00040E050E068EC73EC89EC95E00E94BD03AF
:1022E00063E871E0CE0101960E94240B85E793E03C
:1022F0000E940F0A87E591E00E940F0A89EC95E0A1
:102300000E94F2048EE095E00E947D0118161906E5
:10231000ACF7CE0101960E940501FC018081833754
:1023200069F58BE196E00E94A60310931A060093CC
:10233000190689EC95E00E947E0340E050E068ECCD
:1023400073E489EC95E00E94BD0363E871E0CE017F
:1023500001960E94240B80E893E00E940F0A87E513
:1023600091E00E940F0A89EC95E00E94F2048EE051
:1023700095E00E947D0118161906ACF7CE01019672
:102380000E940501FC018081843669F589EC95E0A5
:102390000E94A60310936C0600936B068BE196E0F7
:1023A0000E947E0340E050E068EC73E48BE196E02D
:1023B0000E94BD0363E871E0CE0101960E94240BE8
:1023C00089E893E00E940F0A87E591E00E940F0AD6
:1023D0008BE196E00E94F2048EE095E00E947D0180
:1023E00018161906ACF7CE0101960E940501FC01F2
:1023F0008081813671F589EC95E00E94A6031093E7
:102400006C0600936B068BE196E00E947E0340E031
:1024100050E068EC73EC8BE196E00E94BD0363E84A
:1024200071E0CE0101960E94240B86E993E00E94A0
:102430000F0A87E591E00E940F0A8BE196E00E9467
:10244000F2048EE095E00E947D0118161906ACF7A3
:10245000FFCECE0101960E940501FC0180818037EC
:10246000A9F489EC95E00E94A6038BE196E00E9416
:10247000A60381EA93E00E940F0A0E941D0A63E806
:1024800071E0CE0101960E94240BE2CECE010196AE
:102490000E940501FC018081823799F489EC95E066
:1024A0000E94DE078BE196E00E94DE0784EB93E05A
:1024B0000E940F0A0E941D0A87E591E00E940F0A00
:1024C000DECFCE0101960E940501FC0180818D3690
:1024D000B1F689EC95E00E94A6038BE196E00E949C
:1024E000A60384ED93E00E940F0A80E194E00E942D
:1024F0000F0A68EC70E080E090E00E9494098AE2A4
:1025000091E00E9487098BE196E00E94DE0789EC4A
:1025100095E00E94DE070E94EE0788E194E00E94A9
:102520000F0A88E494E00E94870988EE93E00E94F5
:10253000FD070E94850B0E94450A38ECE32EF12C22
:102540008091C9059091CA05845691090E94FD07A2
:1025500020910B0530910C05229FC001239F900D07
:10256000900D1124092E000CAA0BBB0BA5019401A0
:10257000281B390B4A0B5B0BCA01B9010E948C1551
:102580000E9465180E9424182B0188279927841916
:1025900095090E9480080E94850B0E94450AC2018D
:1025A000880F991F6AE070E00E94BA181B01D12CB5
:1025B000C12C40911B0650911C0660911D06709124
:1025C0001E06C214D30464F4CA010A960E9480084D
:1025D0000E94850B0E94450A3FEFC31AD30AE9CF38
:1025E000C201052C000CAA0BBB0B841B950BA60B80
:1025F000B70B0297A105B1053CF0C2010E9480080B
:102600000E94850B0E94450A41E0E41AF10809F096
:1026100097CF88E19CEF0E94FD0790E080E00E9448
:1026200080080E94850B0E94450ACE0101960E94F7
:10263000D60A80E090E0892B09F402CE0E9489013D
:10264000882309F4FDCD0E940000FACD87EB95E0C8
:102650000E94D60A8DEB95E00E94D60A83EC95E0A5
:102660000C94D60AEF920F931F93CF93DF93E80158
:1026700034E047FD34E1042E000C550B57FF03C036
:10268000519541955109E32E022F242FAE010E944E
:102690005013CE01DF91CF911F910F91EF900895CC
:1026A000A9E0B0E0E6E5F3E10C94E3166A01F22E4E
:1026B000B02E102FFBE3AF2EA01608F41BE31F5F14
:1026C000012F27E0AE014F5F5F4F0E94AF14BC01A6
:1026D0008981982F9970913009F43FC09BE2E1FC09
:1026E00004C09E2D9170E0FC3AC05E2D5071E82F21
:1026F000E87083FF46C084E0911101C083E0EF2DB4
:10270000E81B8F1508F0E0E0D6018E2F20E255235C
:1027100051F1992329F0D6019C93C60101966C01D1
:1027200096012D5F3F4FE2FE24C08EE4D6018C93CC
:1027300091E411969C93119712968C93D9018E2F48
:1027400090E281111BC0E20FF32FF11D10828EEF7A
:102750009FEF2996ECE00C94FF169DE2C6CF90E225
:10276000C4CF2D9381508111FCCFCE0ED11CE0E05F
:10277000D0CF8EE6D6018C9391E6DBCF9D9381502E
:10278000E0CF482F447082FF3DC084E0911101C02A
:1027900083E08F1510F4EF2DE81BD6018E2F20E279
:1027A000552309F1992329F0D6019C93C60101967E
:1027B0006C0196012D5F3F4FE2FE1BC089E4D601FC
:1027C0008C938EE411968C93119786E412968C93D9
:1027D000D9018E2F90E2882309F4B5CF9D938150C3
:1027E000FACF2D9381508111FCCFCE0ED11CE0E0A9
:1027F000D9CF89E6D6018C938EE611968C931197EA
:1028000086E6E4CF9B0177FF02C030E020E0A1E044
:10281000B0E0911102C0B0E0A0E0F9013196AE0F36
:10282000BF1F8B2C912CBB2009F461C05401EFEF2A
:10283000AE1ABE0AAA0DBB1DFA161B0619F014F03B
:102840004F2D4A1B511188C0E3FC59C07601A42FBB
:10285000B0E2A1114FC0C40ED11C992309F45BC092
:1028600040E0D6011196F60190836D01552309F4DD
:1028700048C0012F060F9A81582F507184FF03C062
:10288000913309F4015010160CF047C0093008F0DC
:1028900008E0EEE2FE2E5B01A01AB10885019194DA
:1028A000819491082F3F320729F4D601FC92F6015A
:1028B00031966F016217730794F1021713077CF5C5
:1028C000DB01A21BB30BAA24A394B12CAC0EBD1E3A
:1028D000AA0DBB1D11968C9121503109D60111967C
:1028E00028153905F4F0F60180836D01DBCFB12C9A
:1028F000A12CA0CFF701B1937F01A150AACF9111D4
:10290000B0CFD601942F50E302C05D939150911146
:10291000FCCFC40ED11C40E0ACCF01E0BACF80E3C5
:10292000DBCF6217730731F4963388F4953311F4D3
:10293000552369F0F6018083FD01842F90E2811117
:1029400008C0A40FB11D1C9290E080E002CF81E38B
:10295000F1CF91938150F3CF911183CF8ACF28305B
:1029600008F027E03327DA01990F311D87FD9160C8
:1029700000966105710539F432602E5F3D9330E3B6
:102980002A95E1F708959F3F30F080387105610581
:1029900009F03C5F3C5F3D93913008F08068911DE9
:1029A000DF93CF931F930F93FF92EF92192F987F8E
:1029B0009695E92F96959695E90FFF27EE53FF4FD1
:1029C00099273327EE24FF24A701E70105900894F7
:1029D000079428F4360FE71EF81E491F511D660F95
:1029E000771F881F991F0694A1F70590079428F474
:1029F000E70EF81E491F561FC11D770F881F991F2C
:102A0000661F0694A1F70590079428F4F80E491F55
:102A1000561FC71FD11D880F991F661F771F069469
:102A2000A1F70590079420F4490F561FC71FD81F20
:102A3000990F661F771F881F0694A9F78491109538
:102A4000177041F0D695C79557954795F794E79439
:102A50001A95C1F7E8E6F0E0689415901591359164
:102A60006591959105907FE27395E118F10A430B0A
:102A7000560BC90BD009C0F7E10CF11E431F561FBE
:102A8000C91FD01D7EF4703311F48A95E6CFE89407
:102A9000015030F0080F0AF40027021708F4202F25
:102AA0002395022F7A3328F079E37D932A95E9F76D
:102AB00010C07D932A9589F606949795679537956A
:102AC00017951794E118F10A430B560BC90BD0095F
:102AD00098F023957E9173957A3308F070E37C9398
:102AE0002013B8F77E9170617D9330F0839571E388
:102AF0007D9370E32A95E1F71124EF90FF900F91F9
:102B00001F91CF91DF91992787FD909508950E949D
:102B1000C91508F481E00895E89409C097FB3EF4D4
:102B200090958095709561957F4F8F4F9F4F99231A
:102B3000A9F0F92F96E9BB279395F6958795779598
:102B40006795B795F111F8CFFAF4BB0F11F460FF58
:102B50001BC06F5F7F4F8F4F9F4F16C0882311F0B0
:102B600096E911C0772321F09EE8872F762F05C0C4
:102B7000662371F096E8862F70E060E02AF09A955F
:102B8000660F771F881FDAF7880F9695879597F954
:102B90000895990F0008550FAA0BE0E8FEEF1616EE
:102BA0001706E807F907C0F012161306E407F50741
:102BB00098F0621B730B840B950B39F40A2661F0B5
:102BC000232B242B252B21F408950A2609F4A14058
:102BD000A6958FEF811D811D08950E9400160C940B
:102BE00071160E94631638F00E946A1620F0952331
:102BF00011F00C945A160C94601611240C94A5161E
:102C00000E94821670F3959FC1F3950F50E0551FF7
:102C1000629FF001729FBB27F00DB11D639FAA2731
:102C2000F00DB11DAA1F649F6627B00DA11D661F80
:102C3000829F2227B00DA11D621F739FB00DA11DA1
:102C4000621F839FA00D611D221F749F3327A00D5B
:102C5000611D231F849F600D211D822F762F6A2FF7
:102C600011249F5750409AF0F1F088234AF0EE0F5C
:102C7000FF1FBB1F661F771F881F91505040A9F789
:102C80009E3F510580F00C945A160C94A5165F3F98
:102C9000E4F3983ED4F3869577956795B795F795C5
:102CA000E7959F5FC1F7FE2B880F911D969587953D
:102CB00097F9089597F99F6780E870E060E00895BC
:102CC0009FEF80EC089500240A9416161706180644
:102CD0000906089500240A94121613061406050620
:102CE0000895092E0394000C11F4882352F0BB0FB1
:102CF00040F4BF2B11F460FF04C06F5F7F4F8F4F14
:102D00009F4F089557FD9058440F551F59F05F3F4E
:102D100071F04795880F97FB991F61F09F3F79F0FD
:102D200087950895121613061406551FF2CF46957F
:102D3000F1DF08C0161617061806991FF1CF869501
:102D40007105610508940895E894BB2766277727E5
:102D5000CB0197F90895052E97FB1EF400940E946D
:102D6000C21657FD07D00E94141707FC03D04EF47B
:102D70000C94C21650954095309521953F4F4F4F7A
:102D80005F4F089590958095709561957F4F8F4F17
:102D90009F4F08950E943617A59F900DB49F900DE8
:102DA000A49F800D911D11240895B7FF0C94CA169D
:102DB0000E94CA16821B930B08952F923F924F9246
:102DC0005F926F927F928F929F92AF92BF92CF92BB
:102DD000DF92EF92FF920F931F93CF93DF93CDB7C4
:102DE000DEB7CA1BDB0B0FB6F894DEBF0FBECDBF3C
:102DF00009942A88398848885F846E847D848C840D
:102E00009B84AA84B984C884DF80EE80FD800C8115
:102E10001B81AA81B981CE0FD11D0FB6F894DEBFF8
:102E20000FBECDBFED010895A1E21A2EAA1BBB1B58
:102E3000FD010DC0AA1FBB1FEE1FFF1FA217B30786
:102E4000E407F50720F0A21BB30BE40BF50B661F9C
:102E5000771F881F991F1A9469F760957095809560
:102E600090959B01AC01BD01CF010895A29FB001D7
:102E7000B39FC001A39F700D811D1124911DB29FAE
:102E8000700D811D1124911D08955058BB27AA274C
:102E90000E945D170C9471160E94631638F00E9410
:102EA0006A1620F039F49F3F19F426F40C9460164A
:102EB0000EF4E095E7FB0C945A16E92F0E94821657
:102EC00058F3BA17620773078407950720F079F45F
:102ED000A6F50C94A4160EF4E0950B2EBA2FA02D97
:102EE0000B01B90190010C01CA01A0011124FF27B7
:102EF000591B99F0593F50F4503E68F11A16F040B2
:102F0000A22F232F342F4427585FF3CF46953795B0
:102F10002795A795F0405395C9F77EF41F16BA0B75
:102F2000620B730B840BBAF09150A1F0FF0FBB1F23
:102F3000661F771F881FC2F70EC0BA0F621F731F6C
:102F4000841F48F4879577956795B795F7959E3FC9
:102F500008F0B0CF9395880F08F09927EE0F97955A
:102F6000879508950E94C6170C9471160E946A16E0
:102F700058F00E94631640F029F45F3F29F00C944A
:102F80005A1651110C94A5160C9460160E948216C4
:102F900068F39923B1F3552391F3951B550BBB2788
:102FA000AA2762177307840738F09F5F5F4F220FCD
:102FB000331F441FAA1FA9F335D00E2E3AF0E0E8C4
:102FC00032D091505040E695001CCAF72BD0FE2F0E
:102FD00029D0660F771F881FBB1F261737074807A2
:102FE000AB07B0E809F0BB0B802DBF01FF2793585A
:102FF0005F4F3AF09E3F510578F00C945A160C94AE
:10300000A5165F3FE4F3983ED4F3869577956795D0
:10301000B795F7959F5FC9F7880F911D969587958E
:1030200097F90895E1E0660F771F881FBB1F6217AD
:1030300073078407BA0720F0621B730B840BBA0B6B
:10304000EE1F88F7E09508950E942B186894B1113F
:103050000C94A51608950E948A1688F09F5798F040
:10306000B92F9927B751B0F0E1F0660F771F881F8D
:10307000991F1AF0BA95C9F714C0B13091F00E94A7
:10308000A416B1E008950C94A416672F782F882712
:10309000B85F39F0B93FCCF3869577956795B395CE
:1030A000D9F73EF490958095709561957F4F8F4F3D
:1030B0009F4F08950E94C91508F48FEF089519F4E1
:1030C00016F40C9460160C94A5180E948A16B8F396
:1030D0009923C9F3B6F39F57550B87FF0E94B31886
:1030E0000024A0E640EA900180585695979528F470
:1030F000805C660F771F881F20F026173707480768
:1031000030F4621B730B840B202931294A2BA695BE
:1031100017940794202531254A2758F7660F771F03
:10312000881F20F026173707480730F4620B730B0F
:10313000840B200D311D411DA09581F7B901842F0D
:103140009158880F9695879508959F3F31F091503B
:1031500020F4879577956795B795880F911D96957B
:10316000879597F9089591505040660F771F881FF3
:10317000D2F7089597FB072E16F4009407D077FD39
:1031800009D00E94CE1807FC05D03EF49095819599
:103190009F4F0895709561957F4F0895AA1BBB1BA3
:1031A00051E107C0AA1FBB1FA617B70710F0A61B47
:1031B000B70B881F991F5A95A9F780959095BC0168
:1031C000CD010895EE0FFF1F0590F491E02D0994B5
:1031D0000F931F93CF93DF938230910510F482E019
:1031E00090E0E0916F06F091700630E020E0B0E0F2
:1031F000A0E0309799F42115310509F44AC0281B45
:10320000390B24303105D8F58A819B816115710510
:1032100089F1FB0193838283FE0111C040815181BA
:103220000281138148175907E0F04817590799F4AC
:10323000109761F012960C93129713961C93329686
:10324000CF01DF91CF911F910F91089500936F06E9
:1032500010937006F4CF2115310551F04217530732
:1032600038F0A901DB019A01BD01DF01F801C1CFEE
:10327000EF01F9CF9093700680936F06CDCFFE01DA
:10328000E20FF31F819391932250310939832883F0
:10329000D7CF20916D0630916E06232B41F42091FB
:1032A00002013091030130936E0620936D06209148
:1032B0000001309101012115310541F42DB73EB7D0
:1032C0004091040150910501241B350BE0916D06DE
:1032D000F0916E06E217F307A0F42E1B3F0B2817A0
:1032E000390778F0AC014E5F5F4F2417350748F07F
:1032F0004E0F5F1F50936E0640936D06819391931E
:103300009FCFF0E0E0E09CCFCF93DF930097E9F010
:10331000FC01329713821282A0916F06B091700661
:10332000ED0130E020E01097A1F420813181820F7F
:10333000931F20916D0630916E062817390709F00A
:1033400061C0F0936E06E0936D06DF91CF91089512
:10335000EA01CE17DF07E8F54A815B819E0141153E
:103360005105B1F7E901FB83EA8349915991C40FF3
:10337000D51FEC17FD0761F4808191810296840FBF
:10338000951FE90199838883828193819B838A8336
:10339000F0E0E0E012968D919C9113970097B9F5BB
:1033A0002D913C911197CD010296820F931F209190
:1033B0006D0630916E062817390739F6309751F5AA
:1033C0001092700610926F06B0936E06A0936D0671
:1033D000BCCFD383C28340815181840F951FC8170E
:1033E000D90761F44E5F5F4F88819981480F591F5B
:1033F000518340838A819B81938382832115310588
:1034000009F0B0CFF0937006E0936F069ECFFD01F8
:10341000DC01C0CF13821282D7CFB0E0A0E0E3E19D
:10342000FAE10C94DF168C01009751F4CB010E9455
:10343000E8188C01C801CDB7DEB7E0E10C94FB16AB
:10344000FC01E60FF71F9C0122503109E217F30738
:1034500008F49DC0D901CD91DC911197C617D7070B
:1034600098F0C530D10530F3CE0104978617970741
:1034700008F3C61BD70B2297C193D1936D937C930E
:10348000CF010E948419D6CF5B01AC1ABD0A4C0152
:103490008C0E9D1EA0916F06B0917006512C412C90
:1034A000F12CE12C109731F580916D0690916E060C
:1034B0008815990509F05CC04616570608F058C0F3
:1034C0008091000190910101009741F48DB79EB762
:1034D0004091040150910501841B950BE817F907F1
:1034E00008F055C0F0936E06E0936D06F901718304
:1034F0006083A0CF8D919C91119712966C9012973A
:1035000013967C901397A815B90559F56C0142E004
:10351000C40ED11CCA14DB0420F1AC014A195B09AA
:10352000DA011296159780F062827382518340838C
:10353000D9016D937C93E114F10471F0D7011396D6
:10354000FC93EE93129776CF22968C0F9D1FF90174
:1035500091838083F301EFCFF0937006E0936F06C1
:1035600069CF4816590608F42C017D01D3019ACF82
:10357000CB010E94E8187C01009749F0AE01B80128
:103580000E94CA1AC8010E948419870153CF10E013
:1035900000E050CFFB01DC0102C001900D924150D0
:1035A0005040D8F70895FB01DC0101900D920020F6
:1035B000E1F7089510E0CAEDD0E004C0FE010E94DA
:0E35C000E2182196CB3DD107C9F7F894FFCF52
:1035CE0000007106800000000000BF0116014C01D2
:1035DE000C027D015B016F01000000006A035F03B6
:1035EE007B0335035803450336030D0A00437572FA
:1035FE0072656E74205820706F736974696F6E3ABD
:10360E00200043757272656E74205A20706F736954
:10361E0074696F6E3A20002D2D2D2D2D2D2D2D2DF3
:10362E002D2D2D2D2D2D2D2D2D2D2D2D2D2D2D2DBC
:10363E002D2D2D2D2D2D2D2D2D2D2D2D2D2D2D0ACF
:10364E00002C090053657269616C20696E697420E3
:10365E004F4B00494E495449414C495A45440A2062
:10366E00D09DD0B0D181D182D180D0BED0B9D0BAC8
:10367E00D0B020D0BDD0B0D187D0B0D0BBD18CD0FF
:10368E00BDD0BED0B920D0BFD0BED0B7D0B8D186B5
:10369E00D0B8D0B82E0A20D0A3D0BFD180D0B0D011
:1036AE00B2D0BBD0B5D0BDD0B8D0B53A0A2020200C
:1036BE0020202020202020202020202020202027F5
:1036CE00732709D0BFD0B5D180D0B5D0BCD0B5D17D
:1036DE0089D0B5D0BDD0B8D0B520D0B2D0BDD0B87D
:1036EE00D0B70A202020202020202020202020209B
:1036FE00202020202027772709D0BFD0B5D180D019
:10370E00B5D0BCD0B5D189D0B5D0BDD0B8D0B5204C
:10371E00D0B2D0B2D0B5D180D1850A2020202020C1
:10372E002020202020202020202020202027642739
:10373E0009D0BFD0B5D180D0B5D0BCD0B5D189D04D
:10374E00B5D0BDD0B8D0B520D0B2D0BFD180D0B01A
:10375E00D0B2D0BE0A2020202020202020202020E1
:10376E002020202020202027612709D0BFD0B5D1CE
:10377E0080D0B5D0BCD0B5D189D0B5D0BDD0B8D061
:10378E00B520D0B2D0BBD0B5D0B2D0BE0A2020204A
:10379E002020202020202020202020202020202714
:1037AE00702709D0BED181D182D0B0D0BDD0BED0CD
:1037BE00B2D0BAD0B00A20202020202020202020F5
:1037CE002020202020202020276D2709D0BFD0B513
:1037DE00D180D0B5D185D0BED0B420D0BA20D18082
:1037EE00D0B5D0B6D0B8D0BCD18320D0B8D0B7D059
:1037FE00BCD0B5D180D0B5D0BDD0B8D0B90A2020BC
:10380E0020202020202020202020202020202020AA
:10381E0027722709D181D0B1D180D0BED18120D0DD
:10382E00B4D0B2D0B8D0B3D0B0D182D0B5D0BBD096
:10383E00B5D0B90A00D0B2D0B2D0B5D180D1850002
:10384E00D0B2D0BDD0B8D0B700D0B2D0BFD180D01A
:10385E00B0D0B2D0BE00D0B2D0BBD0B5D0B2D0BEF8
:10386E0000D0BED181D182D0B0D0BDD0BED0B2D02A
:10387E00BAD0B000D0A1D0B1D180D0BED18120D0ED
:10388E00B4D0B2D0B8D0B3D0B0D182D0B5D0BBD036
:10389E00B5D0B900D09FD0B5D180D0B5D185D0BE2E
:1038AE00D0B4D0B8D0BC20D0BA20D0B0D0BBD0B31A
:1038BE00D0BED180D0B8D182D0BCD18320D0B8D0E8
:1038CE00B7D0BCD0B5D180D0B5D0BDD0B8D0B900AE
:1038DE005A5F535445505300D09FD180D0B8D181F8
:1038EE00D182D183D0BFD0B0D0B5D0BC20D0BA2039
:1038FE00D0B8D0B7D0BCD0B5D180D0B5D0BDD0B8AF
:10390E00D18FD0BC2E2E2E005B4E5D2C095B585DE8
:10391E002C095B5A5D2C095B505D2C095B505F6D69
:08392E005D2C095B545D0A00E9
:00000001FF
